:020000040800F2
:10000000C806002061020008690200086B020008AF
:100010006D0200086F020008710200080000000075
:100020000000000000000000000000007302000853
:10003000750200080000000077020008790200083D
:100040007B0200087B0200087B0200087B0200089C
:100050007B0200087B0200087B0200087B0200088C
:100060007B0200087B0200087B0200087B0200087C
:100070007B0200087B0200087B0200087B0200086C
:100080007B0200087B0200087B02000800000000E1
:100090000000000000000000000000007B020008DB
:1000A0007B0200087B0200087B0200087B0200083C
:1000B0007B0200087B0200087B0200087B0200082C
:1000C0007B0200087B0200087B0200087B0200081C
:1000D0007B0200087B0200087B0200080000000091
:1000E0007B0200087B0200087B0200080000000081
:1000F0000000000000000000000000007B0200087B
:10010000000000007B0200087B0200087B02000860
:1001100000000000000000000000000000000000DF
:100120007B0200087B0200087B0200087B020008BB
:100130007B0200080000000000000000000000003A
:100140000000000000000000000000007B0200082A
:100150007B0200087B0200087B0200087B0200088B
:100160007B0200087B020008000000000000000085
:10017000000000000000000000000000000000007F
:10018000000000007B0200080000000000000000EA
:100190007B02000800F002F800F052F814A696E87E
:1001A000000CB244B344DA4501D100F049F8BAE892
:1001B0000F000FA696E83000A5EB040504EB060738
:1001C000AAEB0704A7F101074FEA15154FEA34140B
:1001D000A4F10104AC4201D300F032F813F0010F96
:1001E00018BFFB1A43F0010300F001F8DBE71847E2
:1001F000080B0000280B0000103A24BF78C878C113
:10020000FAD8520724BF30C830C144BF04680C601C
:1002100070470000704700000023002400250026DE
:10022000103A28BF78C1FBD8520728BF30C148BF59
:100230000B6070471FB500F007FD1FBD10B510BD66
:1002400000F042F81146FFF7F5FF00F089FC00F0DE
:1002500060F803B4FFF7F2FF03BC00F02FF80000D2
:100260000948804709480047FEE7FEE7FEE7FEE74A
:10027000FEE7FEE7FEE7FEE7FEE7FEE70448054986
:10028000054A064B70470000D50900089501000893
:10029000C8000020C8060020C8020020C8020020B4
:1002A00070477047704710B5002000F03BF8FFF72B
:1002B000C5FFBDE810400120AFF3008001491820C0
:1002C000ABBEFEE726000200754600F033F8AE46EE
:1002D00005006946534620F00700854618B020B552
:1002E000FFF7CCFFBDE820404FF000064FF00007BD
:1002F0004FF000084FF0000BAC46ACE8C009ACE88A
:10030000C009ACE8C009ACE8C00921F007018D467E
:10031000704710B50446AFF300802046BDE810409A
:10032000FFF797BF10B500F00FF8BDE8104000F0E0
:1003300006B80000004870471000002070470028F1
:1003400001D0FFF7BBBF704710B5002102A000F03D
:1003500013F8012010BD0000534947414252543A5E
:100360002041626E6F726D616C207465726D696E92
:100370006174696F6E00000070B505460C460A2076
:1003800000E06D1C00F011F835B128780028F8D194
:1003900002E0641C00F009F814B120780028F8D1BC
:1003A000BDE870400A20AFF3008008B569468DF8BB
:1003B00000000320ABBE08BDB0B5044600F0DAF87B
:1003C000054640F20400C2F200000078611C18BF2C
:1003D000044400BF00F0CEF8401BA042FAD3B0BDE9
:1003E0002DE9F04F83B000F1200200F13E4741F2C9
:1003F0000005009207F1FF77C4F2020507224FEAD9
:10040000B726A84208BF0422042E38BF4FEAB722FD
:1004100000274FF0000A4FF0000801920AE000BFE9
:1004200008F101080AF1020AB8F1100F07F10407F8
:1004300000F09D800D68012202FA08FC15EA0C0903
:10044000EED04D68032205F0030BABF10106012E3F
:1004500002FA0AFE10D88668CC6826EA0E0604FA6C
:100460000AF4344384604468C5F3001524EA0C069A
:1004700005FA08F52E434660BBF1030F1BD0C66892
:100480008D6826EA0E0605FA0AF52E43BBF1020F27
:10049000C66010D16FF00302009D02EA580655F8BD
:1004A00006C007F01C040F220B69A2402CEA0202CE
:1004B000A3401A43AA5102684B6822EA0E0203F0D5
:1004C000030606FA0AF6324313F4403F0260A7D04F
:1004D000002243F644030292C4F202031A6843F670
:1004E000004442F480421A601A68C4F2010402F423
:1004F00080420292029A28F003024FF6084C2244EE
:10050000CFF6FF7C52F80C3007F00C060F25B540F3
:10051000AB43019D05FA06F6334342F80C30A2685E
:100520004B6842EA090643F60C4CDD0258BF22EA4A
:100530000906A660C4F2010CDCF800209D0242EA24
:10054000090658BF22EA0906CCF8006062689D03DC
:1005500042EA090658BF22EA090666602268DB0300
:1005600042EA090658BF22EA0906266058E703B0A6
:10057000BDE8F08F40F2C000C2F200000068704792
:1005800080B543F60040C4F20200016841F40071F6
:100590000160016841F480610160032000F05EF8B1
:1005A0000F2000F005F800F02BF8002080BD0000BF
:1005B000B0B540F20402C2F2000240F2000112782B
:1005C000C2F200014FF47A730968B3FBF2F20446F9
:1005D000B1FBF2F1084600F051F80F2C4FF0010585
:1005E0000CD858B94FF0FF3021460022002500F00A
:1005F00009F840F20800C2F2000004602846B0BDCD
:100600007047000010B54EF60C5CCEF2000CDCF822
:100610000030C3F3022E8EF00704042C28BF0424FC
:10062000BEF103034FF0FF3E0EFA04F438BF00237F
:10063000A14399400EFA03F39A43114300F160423B
:1006400000F00F03090102F56442043B63440028F3
:1006500048BF03F10C02117010BD00004EF60C51A2
:10066000CEF200010A684FF6FF031A4060F30A2237
:1006700042F0806040F0FD7008607047411E00202D
:10068000B0EB116F1CBF012070474EF21002CEF28A
:10069000000251604EF62351CEF20001F0230B70A0
:1006A000072190601160704790F83C30012B04BF27
:1006B000022070474FEAB2020123032A80F83C303F
:1006C00000F2E8802DE9F041DFE802F002A33A747D
:1006D000036800251A6AC4F2010522F001021A62B9
:1006E0001C6A1A46D3F804C052F818EF8E6824F03A
:1006F0000204AB4244EA060405D1CE6824F00C049F
:1007000026F0040634430E68AB4206D1D1E9055801
:100710002CF440772F4347EA080C2EF07307374339
:10072000C3F804C09F614F6809695F631C629F69D9
:1007300047F008079F619F6927F004079F61A3E0C6
:10074000036800251A6AC4F2010522F480721A6255
:100750001C6A1A46D3F804C052F81CEF8E6824F4C1
:100760000074AB4244EA062407D1CE6840F2FF474A
:10077000360224F44064BE4334430E68AB4206D1D3
:10078000D1E905572CF4405C3D434CEA051C2EF0A2
:1007900073073743C3F804C0DF614F680969DF633B
:1007A0001C62DF6947F00807DF61DF6927F0040793
:1007B000DF6169E0036800271A6AC4F2010722F4C6
:1007C00080521A621A46D3F820C05D6852F81C4F56
:1007D000D1F800E08E68BB4204D14F6925F4804512
:1007E00045EA87152CF4005747EA063724F4E64615
:1007F00046EA0E265D60DE614E6809691E641F626E
:10080000DF6947F40067DF61DF6927F48067DF6134
:1008100039E0036800251A6AC4F2010522F01002CB
:100820001A621C6A1A46D3F804C052F818EF8E6890
:1008300024F02004AB4244EA061407D1CE686FF0DE
:10084000400724F0C00407EA061634430E68AB42A2
:1008500006D1D1E905572CF4406C3D434CEA850C98
:100860002EF4E64747EA0627C3F804C09F614F68A5
:1008700009699F631C629F6947F400679F619F69D4
:1008800027F480679F6109021368194300231160F0
:10089000BDE8F041002180F83C1018467047000088
:1008A000002804BF0120704710B5044690F83D00B1
:1008B00028B9002084F83C00204600F01FF80220F0
:1008C00084F83D002068211D00F08EF8012084F896
:1008D000460084F83E0084F83F0084F8400084F825
:1008E000410084F8420084F8430084F8440084F80E
:1008F000450084F83D00002010BD00007047000056
:100900004122082908BF4022042908BF3F220029AC
:1009100008BF3E22825C012A1CBF012070470222D0
:1009200041B1082909D0042914BF80F8412080F87A
:100930003F2004E080F83E2001E080F8402000687D
:1009400001F01F010122036A8A4023EA02010162C9
:10095000036A4421C4F201011A43A1F144039842FD
:10096000026203D10A6842F400420A6040F6FF3195
:10097000C4F2000188420FDCB0F1804F1DD040F27C
:100980000041C4F20001884217D040F60001C4F2D1
:100990000001884211D017E040F60041C4F2000186
:1009A00088420AD044F20001C4F20101884204D016
:1009B0000021C4F20101884206D1816801F00701DB
:1009C000062904BF00207047016841F00101016061
:1009D000002070474EF68850CEF20000016841F4C6
:1009E000700101607047000010B540F2FF7E03689F
:1009F000C4F2000E40F2000C7045C4F2010C0ADD96
:100A000040F60002C4F2000290420DD060450BD0C7
:100A100040F6004204E0B0F1804F05D040F20042C1
:100A2000C4F20002904203D14A6823F070031343DA
:100A30004FF6FF72C4F20002904209DC704512DCEE
:100A4000B0F1804F26D040F20042C4F200021FE015
:100A500044F2FF32C4F2010290420FDC604519D02B
:100A600044F2000212E040F60002C4F2000290429A
:100A700010D040F60042C4F2000209E044F6000241
:100A8000C4F20102904205D044F20042C4F20102D5
:100A9000904203D1CA6823F44073134323F08002C9
:100AA0004B69D1F800E08C681A4360450260C4626B
:100AB000C0F828E002D10969CCF830100121416169
:100AC00010BD000090F84820006852B1082A05D0F7
:100AD000042A14BF40223822815070473C228150A2
:100AE0007047342281507047F0B58DB0129D044696
:100AF00080F8485088880027089002200B970A97B2
:100B00000990086808A916460C93FFF769FC0920AC
:100B100047F6FF41C4E9006020460797CDE9057715
:100B2000CDE90377CDE90177C4E902712761A761B7
:100B3000FFF7B6FE6020019040F6CA00CDE902073B
:100B400001A920462A460597FFF7AEFD2046294613
:100B5000FFF7D6FE20460DB0F0BDFFF7A4FB000066
:100B600084B0FFF70DFD4FF48070039040F2004019
:100B7000C4F20200029040F27000C2F2000000785D
:100B8000BFF35F8FC00728D040F27404C2F20004A4
:100B9000204640F6CA01FFF795FF4FF47A70FFF741
:100BA0000BFC204640F61651FFF78CFF4FF47A708D
:100BB000FFF702FC204640F6CA01FFF783FF4FF41F
:100BC0007A70FFF7F9FB20464FF49661FFF77AFF42
:100BD0004FF47A70FFF7F0FBDAE740F27000C2F2F0
:100BE000000000F017F80028CED040F2740040F664
:100BF00000020824C2F2000002A9C4F2000202238B
:100C00000094FFF771FF40F27000C2F2000000F0A4
:100C100017F8B9E7017809B1002070474178012938
:100C200003D08A0705D402224270481E18BF012053
:100C3000704780B540F66240C0F60000FFF78DFFB8
:100C40000121017041707047F1EE100A4FF6FF71FB
:100C5000C0F2C03120EA010040F04070E1EE100A1D
:100C600070475F5F6378615F67756172645F61633E
:100C7000717569726520646574656374656420725A
:100C8000656375727369766520696E697469616CF4
:100C9000697A6174696F6E3A20646F20796F75208C
:100CA0006861766520612066756E6374696F6E2D6C
:100CB0006C6F63616C207374617469632076617218
:100CC0006961626C652077686F736520696E69740D
:100CD00069616C697A6174696F6E20646570656EB4
:100CE0006473206F6E20746861742066756E63741F
:100CF000696F6E3F00000000180D00080000002022
:100D00000C000000F8010008240D0008100000206D
:100D1000B8060000180200080024F40001000000DA
:040D200010000000BF
:04000005080002618C
:00000001FF
